:020000040800F2
:100000000028002065110008F50D0008FB0D000810
:10001000010E0008070E00080D0E00080000000089
:10002000000000000000000000000000130E0008A7
:100030001F0E0008000000002B0E0008370E0008FD
:10004000AD110008AD110008AD110008AD11000898
:10005000AD110008AD110008AD110008AD11000888
:10006000AD110008AD110008AD110008AD11000878
:10007000AD110008AD110008AD110008AD11000868
:10008000AD110008AD110008AD110008AD11000858
:10009000AD110008AD110008AD110008AD11000848
:1000A000AD110008AD110008AD110008AD11000838
:1000B000450E0008AD11000800000000AD11000859
:1000C000AD1100080000000000000000AD110008A4
:1000D00000000000AD110008AD1100080000000094
:1000E000AD110008AD110008AD11000800000000BE
:1000F0000000000000000000000000000000000000
:0C01000000000000000000005FF808F1A3
:10010C0010B5054C237833B9044B13B10448AFF345
:10011C0000800123237010BD20000020000000008F
:10012C00DC27000808B5034B1BB103490348AFF3A8
:10013C00008008BD0000000024000020DC2700081F
:10014C0080B500AFB44B1B78032B00F21A8201A2CE
:10015C0052F823F071010008030200081F03000885
:10016C0077040008AD4B1B68002B12D0AC4B1B68FE
:10017C005A1CAB490A60DBB2184600F04FFBA84B87
:10018C001B68032B02DDA64B00221A60FA2000F03C
:10019C005BFD002000F086FA0346002B13D0A14B28
:1001AC001B78002B12D19F4B01221A709A4B012203
:1001BC001A709D4B00221A7000F04EFE4FF47A70AC
:1001CC0000F026FD02E0974B00221A70974B1B683B
:1001DC00002B00F0DA81964B1B68002B04D100F049
:1001EC003BFE934B01221A6000F0AEFF4FF47A7085
:1001FC0000F00EFDC9E18C4B1B780221184600F073
:10020C0089FA864B1B68002B12D0854B1B685A1C35
:10021C0083490A60DBB2184600F000FB804B1B6878
:10022C00032B02DD7E4B00221A60FA2000F00CFD3D
:10023C00804B1B68002B0AD008217F4801F0CBFAB9
:10024C0040217D4801F0C7FAFA2000F019FD00208A
:10025C0000F028FA0346002B13D0724B1B78002BAE
:10026C0012D1704B01221A706B4B02221A70734B15
:10027C0000221A7000F0F0FD4FF47A7000F0C8FC08
:10028C0002E0684B00221A70012000F00BFA0346C2
:10029C00002B1AD06A4B1B78002B19D1684B01220A
:1002AC001A70614B1B785A1C664B83FB0213134468
:1002BC009911D317C91A0B465B000B4459010B4417
:1002CC00D11ACAB2584B1A7002E05D4B00221A7058
:1002DC00022000F0E7F90346002B0DD05A4B1B7897
:1002EC00002B0CD1584B01221A704F4B1B7800215C
:1002FC00184600F015FE02E0534B00221A704B4BCF
:10030C001B68002B00F043814FF47A7000F080FCE6
:10031C003DE14A4B1B780321184600F0FBF93F4B9B
:10032C001B68002B12D03E4B1B685A1C3C490A60C0
:10033C00DBB2184600F072FA394B1B68032B02DD56
:10034C00374B00221A60FA2000F07EFC394B1B68F8
:10035C00002B0BD02021384801F03DFA4FF480716E
:10036C00354801F038FAFA2000F08AFC002000F041
:10037C0099F90346002B13D02A4B1B78002B12D172
:10038C00284B01221A70244B03221A702F4B002287
:10039C001A7000F061FD4FF47A7000F039FC02E045
:1003AC00204B00221A70012000F07CF90346002B30
:1003BC001AD0234B1B78002B19D1214B01221A7018
:1003CC001E4B1B785A1C1F4B83FB021313449911B1
:1003DC00D317C91A0B465B000B4459010B44D11AB5
:1003EC00CAB2164B1A7002E0154B00221A7002208A
:1003FC0000F058F90346002B2AD0134B1B78002B26
:10040C0029D1114B01221A700C4B1B780121184673
:10041C0000F086FD1FE000BF3C00002070000020B3
:10042C0048000020400000203D0000206C0000200F
:10043C004400002074000020000C01403E0000200D
:10044C004100002003B57EA5420000203F000020A3
:10045C00524B00221A70524B1B68002B00F09980F3
:10046C004FF47A7000F0D4FB93E04E4B1B780421D0
:10047C00184600F04FF94C4B1B68002B12D04B4B1D
:10048C001B685A1C49490A60DBB2184600F0C6F9D1
:10049C00464B1B68032B02DD444B00221A60FA20EA
:1004AC0000F0D2FB424B1B68002B0AD010214148B4
:1004BC0001F091F980213F4801F08DF9FA2000F00C
:1004CC00DFFB002000F0EEF80346002B12D03A4B75
:1004DC001B78002B11D1384B01221A70374B00229C
:1004EC001A7000F0DFFC00F0B7FC4FF47A7000F0EB
:1004FC008FFB02E0304B00221A70012000F0D2F882
:10050C000346002B1AD02E4B1B78002B19D12C4BE9
:10051C0001221A70234B1B785A1C2A4B83FB0213A3
:10052C0013449911D317C91A0B465B000B4459019C
:10053C000B44D11ACAB21B4B1A7002E0204B00229A
:10054C001A70022000F0AEF80346002B0DD0134BAE
:10055C001B78002B0CD1114B01221A70114B1B78FC
:10056C000221184600F0DCFC02E00C4B00221A7051
:10057C000B4B1B68002B0ED04FF47A7000F048FB2D
:10058C0009E00E4B00221A7006E000BF04E000BF29
:10059C0002E000BF00E000BF00BF80BD42000020B1
:1005AC006C0000203F00002070000020480000205C
:1005BC0074000020000C0140400000203C00002092
:1005CC004100002003B57EA580B483B000AF0023AA
:1005DC007B6011E00D4A7B68134401221A700C4AAF
:1005EC007B68134401221A700A4A7B681344012267
:1005FC001A707B6801337B607B68022BEADD00BFDD
:10060C0000BF0C37BD4680BC704700BF50000020B7
:10061C00540000204C00002080B582B000AF0023B5
:10062C007B602DE01A4A7B6813441978194A7B6861
:10063C0013440A461A70184A7B6832F8133019466C
:10064C00164801F099F803461946114A7B68134481
:10065C000A461A700E4A7B6813441A780D497B6857
:10066C000B441B789A4208D1094A7B6813441978C9
:10067C000B4A7B6813440A461A707B6801337B6013
:10068C007B68022BCEDD00BF00BF0837BD4680BDA6
:10069C00500000205400002000000020000C0140FD
:1006AC004C00002080B483B000AF0346FB71FB7993
:1006BC00022B01D9002307E0FB79064AD35C002BFF
:1006CC000CBF01230023DBB218460C37BD4680BC9F
:1006DC00704700BF4C00002080B500AF01224FF4E2
:1006EC0000710B4801F05FF801224FF4806108485B
:1006FC0001F059F801224FF40061054801F053F85C
:10070C0001224FF48051024801F04DF800BF80BD2A
:10071C00000C014080B483B000AF03460A46FB7165
:10072C001346BB71FB79174AA2FB0323DB08DAB231
:10073C00154B1A70FA79134BA3FB0213D9080B460D
:10074C009B000B445B00D31ADAB20F4B5A70BB7987
:10075C000C4AA2FB0323DB08DAB20B4B9A70BA7972
:10076C00084BA3FB0213D9080B469B000B445B0000
:10077C00D31ADAB2044BDA7000BF0C37BD4680BC1A
:10078C00704700BFCDCCCCCC5800002080B483B0D7
:10079C0000AF0346FB71FB790C4AA2FB0323DB0879
:1007AC00DAB20B4B1A70FA79084BA3FB0213D90877
:1007BC000B469B000B445B00D31ADAB2044B5A7005
:1007CC0000BF0C37BD4680BC704700BFCDCCCCCC35
:1007DC005800002080B483B000AF0346FB71FB7956
:1007EC000C4AA2FB0323DB08DAB20B4B9A70FA79A2
:1007FC00084BA3FB0213D9080B469B000B445B0070
:10080C00D31ADAB2044BDA7000BF0C37BD4680BC89
:10081C00704700BFCDCCCCCC5800002080B582B046
:10082C0000AF0346FB71FFF757FFFB791D4AD35C02
:10083C001946FB791C4A515C1C4AD154FB79184669
:10084C0000F038F8FB79032B26D801A252F823F0DC
:10085C006D0800087B080008890800089708000844
:10086C0000224FF40071124800F09DFF15E00022A9
:10087C004FF480610E4800F096FF0EE000224FF41A
:10088C0000610B4800F08FFF07E000224FF480510D
:10089C00074800F088FF00E000BF00BF0837BD46E6
:1008AC0080BD00BF58000020080000205C00002024
:1008BC00000C014080B582B000AF0346FB71FB79A0
:1008CC003B4AD35C03F00103002B0CBF0123002334
:1008DC00DBB21A460221374800F065FFFB79344A37
:1008EC00D35C5B08DBB203F00103002B0CBF0123CC
:1008FC000023DBB21A4604212E4800F054FFFB798A
:10090C002B4AD35C9B08DBB203F00103002B0CBF1A
:10091C0001230023DBB21A460821264800F043FFCE
:10092C00FB79234AD35CDB08DBB203F00103002B19
:10093C000CBF01230023DBB21A4610211D4800F026
:10094C0032FFFB791A4AD35C1B09DBB203F00103BB
:10095C00002B0CBF01230023DBB21A4620211548C3
:10096C0000F021FFFB79124AD35C5B09DBB203F088
:10097C000103002B0CBF01230023DBB21A464021DC
:10098C000C4800F010FFFB79094AD35C9B09DBB2E1
:10099C0003F00103002B0CBF01230023DBB21A462A
:1009AC008021044800F0FFFE00BF0837BD4680BD23
:1009BC005C0000200008014080B500AF00F0F2FBA5
:1009CC0000F028F800F0B2F800F060F8104801F0E0
:1009DC0047FBFFF7F9FD0021052000F0A1FA0121EA
:1009EC00022000F09DFA0221032000F099FA00F099
:1009FC0059FA4FF47A7000F00BF9FA2000F040F934
:100A0C004FF47A7000F020F9FFF79AFBFCE700BF77
:100A1C008400002080B590B000AF07F118032822A5
:100A2C000021184601F0CCFE3B1D00221A605A60D2
:100A3C009A60DA601A610223BB610123BB62102346
:100A4C00FB6200237B6307F11803184600F0DCFE01
:100A5C000346002B01D000F0D5F80F237B60002358
:100A6C00BB600023FB6000233B6100237B613B1DCB
:100A7C000021184601F048F90346002B01D000F084
:100A8C00C1F800BF4037BD4680BD000080B586B0C0
:100A9C0000AF07F1080300221A605A609A60DA600E
:100AAC003B4600221A605A601F4B4FF080421A607E
:100ABC001D4B41F63F725A601B4B00229A601A4B39
:100ACC000922DA60184B00221A61174B00229A6136
:100ADC00154801F075FA0346002B01D000F092F88E
:100AEC004FF48053BB6007F1080319460E4801F020
:100AFC00F3FB0346002B01D000F084F800233B608D
:100B0C0000237B603B461946074801F0CBFD0346AA
:100B1C00002B01D000F076F8034801F0A1FA00BFD9
:100B2C001837BD4680BD00BF8400002080B586B05C
:100B3C0000AF07F1080300221A605A609A60DA606D
:100B4C00274B9B69264A43F004039361244B9B6912
:100B5C0003F004037B607B68214B9B69204A43F0C4
:100B6C00080393611E4B9B6903F008033B603B68D1
:100B7C000022FE211B4800F016FE002241F6F871FF
:100B8C00194800F010FEFE23BB600123FB6000231C
:100B9C003B6102237B6107F108031946114800F001
:100BAC0071FC0723BB600023FB6000233B6107F152
:100BBC00080319460C4800F065FC41F6F873BB605D
:100BCC000123FB6000233B6102237B6107F10803D7
:100BDC001946054800F056FC00BF1837BD4680BDCD
:100BEC000010024000080140000C014080B582B0AA
:100BFC0000AF7860FFF710FD00F05EF800BF08371B
:100C0C00BD4680BD80B400AF00BFBD4680BC704700
:100C1C0080B483B000AF78607B68084A82FB031213
:100C2C009210DB17D31A064A1360064B00221A6087
:100C3C0000BF0C37BD4680BC704700BF6766666658
:100C4C00600000206C00002080B483B000AF78609E
:100C5C007B68084A82FB03129210DB17D31A064AF0
:100C6C001360064B00221A6000BF0C37BD4680BCD7
:100C7C00704700BF67666666640000207000002045
:100C8C0080B483B000AF78607B68084A82FB0312A3
:100C9C009210DB17D31A064A1360064B00221A6017
:100CAC0000BF0C37BD4680BC704700BF67666666E8
:100CBC00680000207400002080B400AF194B1B6842
:100CCC00002B0BDD174B1B68013B164A1360154BB1
:100CDC001B68002B02D1144B01221A60134B1B68AA
:100CEC00002B0BDD114B1B68013B104A13600F4BA3
:100CFC001B68002B02D10E4B01221A600D4B1B6896
:100D0C00002B0BDD0B4B1B68013B0A4A1360094B94
:100D1C001B68002B02D1084B01221A6000BFBD4694
:100D2C0080BC7047600000206C0000206400002034
:100D3C0070000020680000207400002080B485B092
:100D4C0000AF154B9B69144A43F001039361124B9E
:100D5C009B6903F00103BB60BB680F4BDB690E4A58
:100D6C0043F08053D3610C4BDB6903F080537B6001
:100D7C007B680A4B5B68FB60FB6823F0E063FB60FD
:100D8C00FB6843F08063FB60044AFB68536000BF60
:100D9C001437BD4680BC7047001002400000014073
:100DAC0080B584B000AF78607B681B68B3F1804F6E
:100DBC0013D10C4BDB690B4A43F00103D361094B94
:100DCC00DB6903F00103FB60FB68002200211C209F
:100DDC0000F021FB1C2000F03AFB00BF1037BD4691
:100DEC0080BD00BF0010024080B400AFFEE780B4AD
:100DFC0000AFFEE780B400AFFEE780B400AFFEE7C3
:100E0C0080B400AFFEE780B400AF00BFBD4680BC2D
:100E1C00704780B400AF00BFBD4680BC704780B443
:100E2C0000AF00BFBD4680BC704780B500AF00F07E
:100E3C00FFF900BF80BD000080B500AF024801F093
:100E4C005BF900BF80BD00BF8400002080B400AF00
:100E5C0000BFBD4680BC704780B500AF01220821A1
:100E6C000F4800F0A0FC012240210D4800F09BFC33
:100E7C00012220210A4800F096FC0122802108481A
:100E8C0000F091FC01221021054800F08CFC01229D
:100E9C004FF48071024800F086FC00BF80BD00BF9B
:100EAC00000C014080B400AF134B1A78134B1A702E
:100EBC00114B5A78124B1A700F4B9A78114B1A70BF
:100ECC000D4B1A78104B1A700B4B5A780F4B1A703B
:100EDC00094B9A780E4B1A70074B1A780D4B1A70F7
:100EEC00054B5A780C4B1A70034B9A780B4B1A70B3
:100EFC0000BFBD4680BC7047780000207B000020FE
:100F0C007C0000207D0000207E0000207F0000205F
:100F1C00800000208100002082000020830000203F
:100F2C0080B483B000AF03460A46FB711346BB7115
:100F3C00BB790449FA79CA5400BF0C37BD4680BC52
:100F4C00704700BF7800002080B500AF364B1B788F
:100F5C00002B1AD0344B1B781846FFF73BFC0122B0
:100F6C000821324800F01FFC012220212F4800F0FC
:100F7C001AFC002210212D4800F015FC2A4B1B787E
:100F8C00013BDAB2284B1A703CE0294B1B78002B42
:100F9C001AD0274B1B781846FFF71CFC012208219E
:100FAC00224800F000FC00222021204800F0FBFB2E
:100FBC00012210211D4800F0F6FB1D4B1B78013B54
:100FCC00DAB21B4B1A701DE01A4B1B78002B19D090
:100FDC00184B1B781846FFF7FDFB0022082113481D
:100FEC0000F0E1FB01222021104800F0DCFB012283
:100FFC0010210E4800F0D7FB0E4B1B78013BDAB2E8
:10100C000C4B1A700B4B1B78002B0BD10A4B1A781C
:10101C00084B1A70094B1A78054B1A70084B1A7842
:10102C00014B1A7000BF80BD80000020000C0140F5
:10103C007F0000207E000020810000208200002024
:10104C008300002080B500AF384B1B78002B1BD0E1
:10105C00364B1B781846FFF799FB00224021344889
:10106C0000F0A1FB01228021314800F09CFB012201
:10107C004FF480712E4800F096FB2C4B1B78013BF3
:10108C00DAB22A4B1A703EE02A4B1B78002B1BD08D
:10109C00284B1B781846FFF779FB01224021244886
:1010AC0000F081FB00228021214800F07CFB012212
:1010BC004FF480711E4800F076FB1E4B1B78013BF1
:1010CC00DAB21C4B1A701EE01B4B1B78002B1AD08B
:1010DC00194B1B781846FFF759FB01224021144885
:1010EC0000F061FB01228021114800F05CFB002222
:1010FC004FF480710E4800F056FB0F4B1B78013BF0
:10110C00DAB20D4B1A700C4B1B78002B0BD10B4B1E
:10111C001A78064B1A700A4B1A78064B1A70094B40
:10112C001A78054B1A7000BF80BD00BF7B000020F1
:10113C00000C01407C0000207D000020810000207C
:10114C00820000208300002080B500AFFFF77AFFFB
:10115C00FFF7FAFE00BF80BDFFF778FE0B480C4985
:10116C000C4A002302E0D458C4500433C4188C42F7
:10117C00F9D3094A094C002301E013600432A2425E
:10118C00FBD301F0F9FAFFF717FC704700000020C1
:10119C00200000202028000820000020D000002083
:1011AC00FEE7000080B500AF084B1B68074A43F010
:1011BC0010031360032000F023F90F2000F008F84F
:1011CC00FFF7BCFD0023184680BD00BF0020024085
:1011DC0080B582B000AF7860124B1A68124B1B7846
:1011EC0019464FF47A73B3FBF1F3B2FBF3F31846E1
:1011FC0000F03BF90346002B01D001230EE07B6885
:10120C000F2B0AD8002279684FF0FF3000F003F959
:10121C00064A7B681360002300E001231846083758
:10122C00BD4680BD140000201C00002018000020CA
:10123C0080B400AF054B1B781A46054B1B68134452
:10124C00034A136000BFBD4680BC70471C000020E1
:10125C00CC00002080B400AF024B1B681846BD4682
:10126C0080BC7047CC00002080B485B000AF7860A3
:10127C007B6803F00703FB600C4BDB68BB60BA6850
:10128C004FF6FF031340BB60FB681A02BB681343A5
:10129C0043F0BF6343F40033BB60044ABB68D360C4
:1012AC0000BF1437BD4680BC704700BF00ED00E0A6
:1012BC0080B400AF044BDB681B0A03F0070318462D
:1012CC00BD4680BC704700BF00ED00E080B483B029
:1012DC0000AF0346FB7197F90730002B0BDBFB7952
:1012EC0003F01F02064997F907305B09012000FA49
:1012FC0002F241F8232000BF0C37BD4680BC70477A
:10130C0000E100E080B483B000AF03463960FB71AC
:10131C0097F90730002B0ADB3B68DAB20C4997F9D6
:10132C0007301201D2B20B4483F800230AE03B6869
:10133C00DAB20849FB7903F00F03043B1201D2B275
:10134C000B441A7600BF0C37BD4680BC704700BFFB
:10135C0000E100E000ED00E080B489B000AFF8607F
:10136C00B9607A60FB6803F00703FB61FB69C3F1AA
:10137C000703042B28BF0423BB61FB690433062B32
:10138C0002D9FB69033B00E000237B614FF0FF3285
:10139C00BB6902FA03F3DA43BB681A407B699A40D3
:1013AC004FF0FF317B6901FA03F3D9437B680B40A3
:1013BC00134318462437BD4680BC704780B582B0B5
:1013CC0000AF78607B68013BB3F1807F01D30123D0
:1013DC000FE00A4A7B68013B53600F214FF0FF304E
:1013EC00FFF790FF054B00229A60044B07221A600E
:1013FC00002318460837BD4680BD00BF10E000E052
:10140C0080B582B000AF78607868FFF72DFF00BF21
:10141C000837BD4680BD80B586B000AF0346B960C5
:10142C007A60FB7300237B61FFF742FF78617A6877
:10143C00B9687869FFF790FF024697F90F301146AB
:10144C001846FFF75FFF00BF1837BD4680BD80B55B
:10145C0082B000AF0346FB7197F907301846FFF7CF
:10146C0035FF00BF0837BD4680BD80B582B000AFE8
:10147C0078607868FFF7A2FF034618460837BD4628
:10148C0080BD000080B48BB000AF78603960002361
:10149C007B6200233B6248E101227B6A02FA03F380
:1014AC00FB613B681B68FA691340BB61BA69FB6955
:1014BC009A4240F037813B685B68A34A93425ED006
:1014CC00A14A934275D8A14A934258D09F4A93425D
:1014DC006FD89F4A934252D09D4A934269D89D4AF5
:1014EC0093424CD09B4A934263D89B4A934246D03A
:1014FC00994A93425DD8122B2AD8122B59D801A2A3
:10150C0052F823F08B1500086515000877150008B4
:10151C00B9150008BF150008BF150008BF15000855
:10152C00BF150008BF150008BF150008BF1500083F
:10153C00BF150008BF150008BF150008BF1500082F
:10154C00BF150008BF1500086D15000881150008AF
:10155C00824A934213D02CE03B68DB683B6229E063
:10156C003B68DB6804333B6224E03B68DB68083390
:10157C003B621FE03B68DB680C333B621AE03B6864
:10158C009B68002B02D104233B6213E03B689B68F1
:10159C00012B05D108233B627B68FA691A6109E0CB
:1015AC0008233B627B68FA695A6103E000233B62C3
:1015BC0000E000BFBB69FF2B01D87B6801E07B68B2
:1015CC0004337B61BB69FF2B02D87B6A9B0002E072
:1015DC007B6A083B9B003B617B691A680F213B6966
:1015EC0001FA03F3DB431A40396A3B6901FA03F34E
:1015FC001A437B691A603B685B6803F08053002BCD
:10160C0000F09080564B9B69554A43F0010393615F
:10161C00534B9B6903F00103BB60BB68514A7B6A67
:10162C009B08023352F82330FB607B6A03F0030300
:10163C009B000F2202FA03F3DB43FA681340FB60B2
:10164C007B68494A93420DD07B68484A934207D045
:10165C007B68474A934201D1022304E0032302E052
:10166C00012300E000237A6A02F003029200934007
:10167C00FA681343FB603B497B6A9B080233FA68A8
:10168C0041F823203B685B6803F48013002B06D0E1
:10169C00384B9A683749BB6913438B6006E0354B6E
:1016AC009A68BB69DB43334913408B603B685B68CA
:1016BC0003F40013002B06D02E4BDA682D49BB69BE
:1016CC001343CB6006E02B4BDA68BB69DB4329493B
:1016DC001340CB603B685B6803F40033002B06D0EF
:1016EC00244B5A682349BB6913434B6006E0214BDA
:1016FC005A68BB69DB431F4913404B603B685B680E
:10170C0003F48033002B06D01A4B1A681949BB69B5
:10171C0013430B6006E0174B1A68BB69DB43154992
:10172C0013400B607B6A01337B623B681A687B6AEF
:10173C0022FA03F3002B7FF4AFAE00BF00BF2C37AF
:10174C00BD4680BC704700BF000032100000311055
:10175C0000002210000021100000121000001110D7
:10176C00001002400000014000080140000C014044
:10177C00001001400004014080B485B000AF7860D7
:10178C000B467B807B689A687B881340002B02D0C9
:10179C000123FB7301E00023FB73FB7B184614371A
:1017AC00BD4680BC704780B483B000AF78600B46F8
:1017BC007B8013467B707B78002B03D07A887B6808
:1017CC001A6103E07B881A047B681A6100BF0C372E
:1017DC00BD4680BC704780B485B000AF78600B46C6
:1017EC007B807B68DB68FB607A88FB6813401A049B
:1017FC00FB68D9437B880B401A437B681A6100BF96
:10180C001437BD4680BC704780B586B000AF786099
:10181C007B68002B01D101236CE27B681B6803F011
:10182C000103002B00F08780924B5B6803F00C03E4
:10183C00042B0CD08F4B5B6803F00C03082B12D1DC
:10184C008C4B5B6803F48033B3F5803F0BD1894B31
:10185C001B6803F40033002B6CD07B685B68002B97
:10186C0068D1012346E27B685B68B3F5803F06D103
:10187C00804B1B687F4A43F4803313602EE07B68F7
:10188C005B68002B0CD17B4B1B687A4A23F48033AA
:10189C001360784B1B68774A23F4802313601DE098
:1018AC007B685B68B3F5A02F0CD1724B1B68714A37
:1018BC0043F4802313606F4B1B686E4A43F48033F0
:1018CC0013600BE06B4B1B686A4A23F48033136084
:1018DC00684B1B68674A23F4802313607B685B6842
:1018EC00002B13D0FFF7B6FC386108E0FFF7B2FC11
:1018FC0002463B69D31A642B01D90323FAE15D4BF1
:10190C001B6803F40033002BF0D014E0FFF7A2FCAB
:10191C00386108E0FFF79EFC02463B69D31A642B42
:10192C0001D90323E6E1534B1B6803F40033002B6E
:10193C00F0D100E000BF7B681B6803F00203002BB2
:10194C0063D04C4B5B6803F00C03002B0BD0494B62
:10195C005B6803F00C03082B1CD1464B5B6803F44B
:10196C008033002B16D1434B1B6803F00203002B72
:10197C0005D07B681B69012B01D00123BAE13D4BDB
:10198C001B6823F0F8027B685B69DB003949134361
:10199C000B603AE07B681B69002B20D0364B012290
:1019AC001A60FFF757FC386108E0FFF753FC02465A
:1019BC003B69D31A022B01D903239BE12D4B1B68E6
:1019CC0003F00203002BF0D02A4B1B6823F0F80223
:1019DC007B685B69DB00274913430B6015E0264BE2
:1019EC0000221A60FFF736FC386108E0FFF732FC82
:1019FC0002463B69D31A022B01D903237AE11D4B12
:101A0C001B6803F00203002BF0D17B681B6803F00A
:101A1C000803002B3AD07B689B69002B19D0174B1D
:101A2C0001221A60FFF716FC386108E0FFF712FC80
:101A3C0002463B69D31A022B01D903235AE10D4B01
:101A4C005B6A03F00203002BF0D0012000F09AFA3D
:101A5C001CE00A4B00221A60FFF7FCFB38610FE018
:101A6C00FFF7F8FB02463B69D31A022B08D9032374
:101A7C0040E100BF0010024000004242800442429C
:101A8C009E4B5B6A03F00203002BE9D17B681B6859
:101A9C0003F00403002B00F0A6800023FB75974B8A
:101AAC00DB6903F08053002B0DD1944BDB69934A17
:101ABC0043F08053D361914BDB6903F08053BB60DF
:101ACC00BB680123FB758E4B1B6803F48073002BE2
:101ADC0018D18B4B1B688A4A43F480731360FFF751
:101AEC00B9FB386108E0FFF7B5FB02463B69D31A36
:101AFC00642B01D90323FDE0814B1B6803F4807335
:101B0C00002BF0D07B68DB68012B06D17B4B1B6A6A
:101B1C007A4A43F0010313622DE07B68DB68002BEB
:101B2C000CD1764B1B6A754A23F001031362734B7D
:101B3C001B6A724A23F0040313621CE07B68DB68A7
:101B4C00052B0CD16D4B1B6A6C4A43F004031362DA
:101B5C006A4B1B6A694A43F0010313620BE0674B43
:101B6C001B6A664A23F001031362644B1B6A634AC7
:101B7C0023F0040313627B68DB68002B15D0FFF79E
:101B8C0069FB38610AE0FFF765FB02463B69D31A33
:101B9C0041F28832934201D90323ABE0574B1B6AC5
:101BAC0003F00203002BEED014E0FFF753FB386177
:101BBC000AE0FFF74FFB02463B69D31A41F2883229
:101BCC00934201D9032395E04C4B1B6A03F00203AB
:101BDC00002BEED1FB7D012B05D1484BDB69474A2D
:101BEC0023F08053D3617B68DB69002B00F081808C
:101BFC00424B5B6803F00C03082B61D07B68DB69FC
:101C0C00022B46D13F4B00221A60FFF723FB3861B1
:101C1C0008E0FFF71FFB02463B69D31A022B01D9E0
:101C2C00032367E0354B1B6803F00073002BF0D1E6
:101C3C007B681B6AB3F5803F08D1304B5B6823F49B
:101C4C0000327B689B682D4913434B602B4B5B68C0
:101C5C0023F474127B68196A7B685B6A0B4327490F
:101C6C0013434B60274B01221A60FFF7F3FA3861DC
:101C7C0008E0FFF7EFFA02463B69D31A022B01D9B1
:101C8C00032337E01D4B1B6803F00073002BF0D0CF
:101C9C002FE01C4B00221A60FFF7DCFA386108E0D9
:101CAC00FFF7D8FA02463B69D31A022B01D903235A
:101CBC0020E0124B1B6803F00073002BF0D118E0EE
:101CCC007B68DB69012B01D1012313E00B4B5B68B3
:101CDC00FB60FB6803F480327B681B6A9A4206D176
:101CEC00FB6803F470127B685B6A9A4201D0012393
:101CFC0000E0002318461837BD4680BD0010024096
:101D0C00007000406000424280B584B000AF786043
:101D1C0039607B68002B01D10123D0E06A4B1B6832
:101D2C0003F007033A689A4210D9674B1B6823F0FB
:101D3C00070265493B6813430B60634B1B6803F058
:101D4C0007033A689A4201D00123B8E07B681B680C
:101D5C0003F00203002B20D07B681B6803F0040304
:101D6C00002B05D0594B5B68584A43F4E063536031
:101D7C007B681B6803F00803002B05D0534B5B6892
:101D8C00524A43F460535360504B5B6823F0F002AB
:101D9C007B689B684D4913434B607B681B6803F061
:101DAC000103002B40D07B685B68012B07D1474BAC
:101DBC001B6803F40033002B15D101237FE07B68F3
:101DCC005B68022B07D1414B1B6803F00073002B9F
:101DDC0009D1012373E03D4B1B6803F00203002B78
:101DEC0001D101236BE0394B5B6823F003027B6864
:101DFC005B68364913434B60FFF72CFAF8600AE036
:101E0C00FFF728FA0246FB68D31A41F28832934254
:101E1C0001D9032353E02D4B5B6803F00C027B6864
:101E2C005B689B009A42EBD1274B1B6803F00703BE
:101E3C003A689A4210D2244B1B6823F007022249BD
:101E4C003B6813430B60204B1B6803F007033A6895
:101E5C009A4201D0012332E07B681B6803F0040333
:101E6C00002B08D0194B5B6823F4E0627B68DB68BD
:101E7C00164913434B607B681B6803F00803002B67
:101E8C0009D0124B5B6823F460527B681B69DB0042
:101E9C000E4913434B6000F021F802460B4B5B6874
:101EAC001B0903F00F030A49CB5C22FA03F3094A1E
:101EBC001360094B1B681846FFF78AF90023184674
:101ECC001037BD4680BD00BF00200240001002400C
:101EDC00F4270008140000201800002080B487B0FC
:101EEC0000AF0023FB600023BB6000237B61002359
:101EFC007B6000233B611E4B5B68FB60FB6803F05F
:101F0C000C03042B02D0082B03D027E0194B3B61A8
:101F1C0027E0FB689B0C03F00F03174AD35C7B6034
:101F2C00FB6803F48033002B10D0114B5B685B0C07
:101F3C0003F00103114AD35CBB607B680D4A02FBC2
:101F4C0003F2BB68B2FBF3F37B6104E07B680C4AE1
:101F5C0002FB03F37B617B693B6102E0054B3B6158
:101F6C0000BF3B6918461C37BD4680BC704700BF9C
:101F7C000010024000127A000428000814280008FF
:101F8C0000093D0080B485B000AF78600A4B1B6837
:101F9C000A4AA2FB03235B0A7A6802FB03F3FB6089
:101FAC0000BFFB685A1EFA60002BF9D100BF00BFBE
:101FBC001437BD4680BC704714000020D34D62100E
:101FCC0080B582B000AF78607B68002B01D1012313
:101FDC0041E07B6893F83D30DBB2002B06D17B6887
:101FEC00002283F83C207868FEF7DAFE7B68022238
:101FFC0083F83D207B681A687B68043319461046C9
:10200C0000F056FA7B68012283F846207B68012297
:10201C0083F83E207B68012283F83F207B680122F5
:10202C0083F840207B68012283F841207B680122E1
:10203C0083F842207B68012283F843207B680122CD
:10204C0083F844207B68012283F845207B680122B9
:10205C0083F83D20002318460837BD4680BD00009C
:10206C0080B485B000AF78607B6893F83D30DBB20C
:10207C00012B01D0012335E07B68022283F83D203F
:10208C007B681B68DA687B681B6842F00102DA60C7
:10209C007B681B68164A934209D07B681B68B3F1B6
:1020AC00804F04D07B681B68124A934211D17B6825
:1020BC001B689B6803F00703FB60FB68062B10D0C2
:1020CC007B681B681A687B681B6842F001021A6007
:1020DC0007E07B681B681A687B681B6842F001028A
:1020EC001A60002318461437BD4680BC704700BFE9
:1020FC00002C01400004004080B584B000AF786033
:10210C007B681B68DB68FB607B681B681B69BB60BA
:10211C00BB6803F00203002B20D0FB6803F0020322
:10212C00002B1BD07B681B686FF002021A617B6866
:10213C0001221A777B681B689B6903F00303002B51
:10214C0003D0786800F098F905E0786800F08BF916
:10215C00786800F09AF97B6800221A77BB6803F064
:10216C000403002B20D0FB6803F00403002B1BD0CE
:10217C007B681B686FF004021A617B6802221A7775
:10218C007B681B689B6903F44073002B03D0786851
:10219C0000F072F905E0786800F065F9786800F0F5
:1021AC0074F97B6800221A77BB6803F00803002BD4
:1021BC0020D0FB6803F00803002B1BD07B681B6846
:1021CC006FF008021A617B6804221A777B681B681F
:1021DC00DB6903F00303002B03D0786800F04CF9A3
:1021EC0005E0786800F03FF9786800F04EF97B68FC
:1021FC0000221A77BB6803F01003002B20D0FB6879
:10220C0003F01003002B1BD07B681B686FF01002CF
:10221C001A617B6808221A777B681B68DB6903F4F8
:10222C004073002B03D0786800F026F905E078683D
:10223C0000F019F9786800F028F97B6800221A7709
:10224C00BB6803F00103002B0CD0FB6803F0010307
:10225C00002B07D07B681B686FF001021A6178684D
:10226C00FEF7C4FCBB6803F08003002B0CD0FB68AA
:10227C0003F08003002B07D07B681B686FF0800293
:10228C001A61786800F06FFABB6803F04003002B0A
:10229C000CD0FB6803F04003002B07D07B681B6855
:1022AC006FF040021A61786800F0F8F8BB6803F030
:1022BC002003002B0CD0FB6803F02003002B07D06D
:1022CC007B681B686FF020021A61786800F042FA94
:1022DC0000BF1037BD4680BD80B584B000AF7860BC
:1022EC0039600023FB737B6893F83C30012B01D1E0
:1022FC000223B4E07B68012283F83C207B68022235
:10230C0083F83D207B681B689B68BB60BB6823F02F
:10231C007703BB60BB6823F47F43BB607B681B689F
:10232C00BA689A603B681B68B3F5005F3ED0B3F5A2
:10233C00005F00F28780B3F5805F00F08680B3F514
:10234C00805F7FD8702B1AD0702B7BD8602B50D02D
:10235C00602B77D8502B3CD0502B73D8402B58D0B7
:10236C00402B6FD8302B64D0302B6BD8202B60D007
:10237C00202B67D8002B5CD0102B5AD062E07B68E6
:10238C0018683B6899683B685A683B68DB6800F0E2
:10239C006AF97B681B689B68BB60BB6843F077037A
:1023AC00BB607B681B68BA689A604FE07B681868F2
:1023BC003B6899683B685A683B68DB6800F053F9E6
:1023CC007B681B689A687B681B6842F480429A6041
:1023DC003CE07B6818683B6859683B68DB681A46C8
:1023EC0000F0CAF87B681B685021184600F021F9F0
:1023FC002CE07B6818683B6859683B68DB681A46B8
:10240C0000F0E8F87B681B686021184600F011F9B1
:10241C001CE07B6818683B6859683B68DB681A46A7
:10242C0000F0AAF87B681B684021184600F001F9FF
:10243C000CE07B681A683B681B681946104600F074
:10244C00F8F803E00123FB7300E000BF7B68012276
:10245C0083F83D207B68002283F83C20FB7B1846E8
:10246C001037BD4680BD80B483B000AF786000BF2C
:10247C000C37BD4680BC704780B483B000AF786029
:10248C0000BF0C37BD4680BC704780B483B000AF32
:10249C00786000BF0C37BD4680BC704780B483B0F9
:1024AC0000AF786000BF0C37BD4680BC70470000A1
:1024BC0080B485B000AF786039607B681B68FB60C6
:1024CC007B682B4A934207D07B68B3F1804F03D0D3
:1024DC007B68284A934208D1FB6823F07003FB60A9
:1024EC003B685B68FA681343FB607B68204A934245
:1024FC0007D07B68B3F1804F03D07B681D4A9342B1
:10250C0008D1FB6823F44073FB603B68DB68FA6816
:10251C001343FB60FB6823F080023B685B69134349
:10252C00FB607B68FA681A603B689A687B68DA62C1
:10253C003B681A687B689A627B680D4A934203D1A8
:10254C003B681A697B681A637B6801225A617B6855
:10255C001B6903F00103002B05D07B681B6923F07A
:10256C0001027B681A6100BF1437BD4680BC7047FE
:10257C00002C01400004004080B487B000AFF8602C
:10258C00B9607A60FB681B6A7B61FB681B6A23F08D
:10259C000102FB681A62FB689B693B613B6923F093
:1025AC00F0033B617B681B013A6913433B617B6918
:1025BC0023F00A037B617A69BB6813437B61FB6878
:1025CC003A699A61FB687A691A6200BF1C37BD468A
:1025DC0080BC704780B487B000AFF860B9607A6097
:1025EC00FB681B6A7B61FB681B6A23F01002FB68AB
:1025FC001A62FB689B693B613B6923F470433B6146
:10260C007B681B033A6913433B617B6923F0A0038E
:10261C007B61BB681B017A6913437B61FB683A6978
:10262C009A61FB687A691A6200BF1C37BD4680BC90
:10263C00704780B485B000AF786039607B689B6868
:10264C00FB60FB6823F07003FB603A68FB68134384
:10265C0043F00703FB607B68FA689A6000BF14378D
:10266C00BD4680BC704780B487B000AFF860B960DD
:10267C007A603B60FB689B687B617B6923F47F43DA
:10268C007B613B681A027B681A43BB6813437A6907
:10269C0013437B61FB687A699A6000BF1C37BD46A7
:1026AC0080BC704780B485B000AF786039607B68BF
:1026BC0093F83C30012B01D1022341E07B680122CD
:1026CC0083F83C207B68022283F83D207B681B68E2
:1026DC005B68FB607B681B689B68BB60FB6823F0D6
:1026EC007003FB603B681B68FA681343FB607B68F4
:1026FC001B68FA685A607B681B68144A934209D0BD
:10270C007B681B68B3F1804F04D07B681B68104A50
:10271C0093420CD1BB6823F08003BB603B685B68C1
:10272C00BA681343BB607B681B68BA689A607B68A5
:10273C00012283F83D207B68002283F83C20002393
:10274C0018461437BD4680BC704700BF002C0140B2
:10275C000004004080B483B000AF786000BF0C3739
:10276C00BD4680BC704780B483B000AF786000BFBA
:10277C000C37BD4680BC704770B500260C4D0D4C17
:10278C00641BA410A64209D100F022F800260A4DC1
:10279C000A4C641BA410A64205D170BD55F8043B2D
:1027AC0098470136EEE755F8043B98470136F2E7B7
:1027BC001828000818280008182800081C280008E9
:1027CC0003460244934200D1704703F8011BF9E71A
:1027DC00F8B500BFF8BC08BC9E467047F8B500BF02
:0827EC00F8BC08BC9E467047D2
:1027F40000000000000000000102030406070809AD
:1028040002030405060708090A0B0C0D0E0F10102D
:0428140001020000BD
:042818003101000882
:04281C000D010008A2
:1028200001000200040000003F065B4F666D7D075B
:102830007F67000000127A00100000000100000015
:040000050800116579
:00000001FF
